:10000000020FD732AAAAAAAAAAAAAA32AAAAAAAA56
:10001000AAAAAA32AAAAAAAAAAAAAA32AAAAAAAA30
:10002000AAAAAA32AAAAAAAAAAAAAA32AAAAAAAA20
:10003000AAAAAA32AAAAAAAAAAAAAA32AAAAAAAA10
:10004000AAAAAA0207B5AAAAAAAAAA1206C280FE4A
:1000500075820022E530B4B3028008120E9175302B
:10006000B3800375300022753000907F96E4F090E5
:100070007F9C74FFF0907F93E4F0907F97F0907FE7
:100080009D74FFF0907F94E4F0907F98747FF090DF
:100090007F9E74FFF0907F957440F0907F9874116C
:1000A000F0907F957440F0904000E4F0907F95745C
:1000B00040F022758E00907FAFE4F0907FDDF090ED
:1000C0007FAE7401F0907FDE742BF0907FDF7415AB
:1000D000F0907FAC74FFF0907FAD7415F0907FB618
:1000E000E0FA430202907FB6EAF0907FBEE0FA4366
:1000F0000202907FBEEAF075E8E175F80075A8800D
:10010000227A007B007C007D00C3EC9412ED940009
:100110005026EA2480FEEB347BFFEC24C7F582ED09
:100120003408F583E493F88E828F83F00ABA0001D5
:100130000B0CBC00D40D80D17C007D00C3EC940975
:10014000ED94005026EA2480FEEB347BFFEC24D9AA
:10015000F582ED3408F583E493F88E828F83F00AFC
:10016000BA00010B0CBC00D40D80D17C007D00C313
:10017000EC9409ED9400E433FE8A5A8B5BEE602721
:10018000EA2480FEEB347BF9EC24E2F582ED3408BE
:10019000F583E493F55E8E828983F00ABA00010B41
:1001A0000CBC00CB0D80C8E4F55DF55C7CF97DFFEF
:1001B000C3E55C9405E55D940040030202127407F8
:1001C0002CFCE43DFDEC2437FEA95AAA5B7B007FA2
:1001D00000C3EB9407EF9400E433F8895A8A5BE894
:1001E0006025E92480F582EA347BF583EB2EF55E09
:1001F000C000A85E865FD000E55FF009B900010A83
:100200000BBB00CD0F80CA055CE4B55C02055D0246
:1002100001B022907FB6E0FA30E102801F907B505F
:10022000E0FA6018907B50E0FA7B00EA60041A0B59
:1002300080F9907B50E0FA907FB7EAF022907FC877
:10024000E0FA30E102800D907FC9E0FA6006907F0D
:10025000C97440F022907FBAE0FA30E1030202EC68
:10026000E532453370030202E0E535B44102802AED
:10027000E535B4430280030202DA7AC47B7C7C0158
:100280008A828B838CF0120A88153274FFB5320291
:100290001533907FBB7440F08046907CC4E02420EE
:1002A000FA907CC4EAF0BA000B907CC5E004FA90A6
:1002B0007CC5EAF0907CC77410F07AC47B7C7C012A
:1002C0008A828B838CF0120A22153274FFB53202B7
:1002D0001533907FBB7440F08006907FBB7440F074
:1002E000E53245337006907FCD7440F022907FCC8C
:1002F000E0FA30E103020689907FCDE0FABA00030C
:10030000020689BA3F028009BA40030205A9020623
:1003100083907CC0E0F535907CC0E0FABA000280A2
:100320004ABA0502804BBA06030203E2BA07030287
:1003300003C0BA4003020443BA4103020407BA42AD
:10034000030204AABA430302046EBA44030204D5AA
:10035000BA4603020537BA47030204FABA48030251
:10036000058BBAFF030203FE0205A0120054020629
:1003700089120054907D80E530F0907D81E531F068
:10038000907D8274A5F0907D837496F0907D887442
:1003900023F0907D897445F0120F07AA82907D8A20
:1003A000EAF0120F3AAA82907D8BEAF0907D8CE4FD
:1003B000F0907FCD7440F0907FBB7440F0020689CE
:1003C0007A807B7D8B027B00907FE3EAF0907FE474
:1003D0007480F0907FCD7440F0907FBB7440F00249
:1003E00006897AD07B7C8B027B00907FE3EAF090D9
:1003F0007FE474D0F0907FCD7440F0020689907F46
:10040000CD7440F0020689907CC2E0FA8A327533DE
:1004100000907CC3E0FA7B008A037A00EA4232EB68
:1004200042337AC47B7C7C018A828B838CF0120AF3
:1004300022153274FFB532021533907FBB7440F041
:10044000020689907FE474C8F07AC87B7C8B027BBB
:1004500000907FE3EAF07AC47B7C7C018A828B8304
:100460008CF0120948907FCD7440F0020689907C90
:10047000C2E0FA8A32753300907CC3E0FA7B008ACE
:10048000037A00EA4232EB42337AC47B7C7C018AF5
:10049000828B838CF0120A88153274FFB5320215F4
:1004A00033907FBB7440F00206897AC87B7C8B0254
:1004B0007B00907FE3EAF0907FE474C8F07AC47B1D
:1004C0007C7C018A828B838CF0120AD5907FCD745C
:1004D00040F0020689907CC4E0FABA00111200676D
:1004E000907D80E531F0907FBB7440F08003120076
:1004F00054907FCD7440F0020689907CC4E0FA905D
:100500007B80F0907CC5E0FA907B81EAF0907B8361
:100510007440F0907CC2E0FA8A32753300907CC35C
:10052000E0FA7B008A037A00EA4232EB4233907FA2
:10053000CD7440F0020689907CC4E0FA907B80F094
:10054000907CC5E0FA907B81EAF0907CC6E0FA905E
:100550007B82EAF0907CC1E0FA907B84EAF0907CA8
:10056000C1E0F534907CC2E0FA8A32753300907CA9
:10057000C3E0FA7B008A037A00EA4232EB42337529
:100580003600907FCD7440F0020689758200120F0C
:100590007A907FBB7440F0907FCD7440F002068962
:1005A000907FCD7440F0020689E535B44602800B99
:1005B000E535B4470302064C020683E53245337045
:1005C00003020644907FE474C0F07AC07B7C8B0207
:1005D0007B00907FE3EAF0E5366003020629E5340C
:1005E00060137A807B7B7C018A828B838CF0120C77
:1005F0008CAA8280177B807C7B7D018B828C838D93
:10060000F0C002120CFBAB82D0028B02907B80E028
:100610002420FBBB000B907B81E004FC907B81ECF1
:10062000F0907B80EBF0EA4236153274FFB532026F
:100630001533E5324533700C907D90E536F0907FB0
:10064000BB7440F0907FCD7440F08037E532453385
:100650006031907FE474C0F07AC07B7C8B027B00B9
:10066000907FE3EAF07A807B7B7C018A828B838CAB
:10067000F0120AD5153274FFB532021533907FCDD2
:100680007440F0907FCD7440F022907FBEE0FA304D
:10069000E102800D907FBFE0FA6006907FBF74405A
:1006A000F022907FD6E0FA5302F3907FD6740C4A82
:1006B000F022907FD6E0FA5302F3907FD674064A78
:1006C000F02275A8001200541206A21200B3120103
:1006D000011206B27A038A031AEB6046C0021200C6
:1006E00067D0027BA07C867D017E001BBBFF091CBE
:1006F000BCFF051DBDFF011EEB4C4D4E70EDC00251
:10070000120054D0027BA07C867D017E001BBBFFC3
:10071000091CBCFF051DBDFF011EEB4C4D4E70EDCD
:1007200080B41200677535007A00BA4000500FEAB5
:100730002480F582E4347CF583EAF00A80EC75A825
:1007400080907FCD7440F0907FCD7440F080FE2289
:10075000AA82BA0102800ABA0202801FBA033C8050
:10076000327A807B7B8B047D007D00907FD4ECF01F
:100770008A047D00907FD5ECF080267A927B7B8B7B
:10078000047D007D00907FD4ECF07B00907FD5EA63
:10079000F0800E907B4A7401F08006907B4A7401D1
:1007A000F022907FE9E0FABA060A907FEBE0FA8A3D
:1007B0008212075022C0E0C0F0C082C083C002C0D5
:1007C00003C004C005C006C007C000C001C0D0758A
:1007D000D000907FA8E0FABA3C0F1202ED5391EFDF
:1007E000907FAA7410F00208AC907FA8E0FABA00DB
:1007F00002801BBA2003020865BA2C03020873BAF0
:100800003003020881BA400302088F02089D907BE2
:100810004AE4F0907FE8E0FA530260BA001212074F
:10082000A2907B507401F0120213907FC97440F0C3
:10083000907B4AE0FABA000F907FB4E0FA430202DC
:10084000907FB4EAF0800D907FB4E0FA4302039009
:100850007FB4EAF05391EF907FABE0FA907FAB74F6
:10086000014AF080471202135391EF907FA974025E
:10087000F0803912023D5391EF907FAA7404F0800A
:100880002B1202555391EF907FA97408F0801D122E
:10089000068A5391EF907FA97420F0800F5391EF57
:1008A000907FABE0FA907FAB74014AF0D0D0D001DA
:1008B000D000D007D006D005D004D003D002D0831A
:1008C000D082D0F0D0E03212010001000000404799
:1008D00005021001000000000109023500010100BD
:1008E00080FA0904000005FF00FF00907FE4748097
:1008F000F0907FE3747DF022C083E582907FE4F086
:10090000907FE3D0E0F022E0F8A3E0F9A3E0FAA3BF
:10091000E0FB22120932EA904000F074EF907F98D9
:10092000F0E8907F96F0E9907F97F074E7907F98D9
:10093000F02274FF907F9CF0907F9DF022740090D5
:100940007F9CF0907F9DF022120907120913907F7F
:10095000E5E0907F96F0907FE5E0907F97F074E679
:10096000907F98F074E7F0DBE574FFF0227B0812CB
:100970000913907FE5E0C5F0E0907F97F0C5F09017
:100980007F96F074E6907F98F074E7F0907FE5E052
:10099000C5F0E0907F97F0C5F0907F96F074E690F8
:1009A0007F98F074E7F0907FE5E0C5F0E0907F97E6
:1009B000F0C5F0907F96F074E6907F98F074E7F0C1
:1009C000907FE5E0C5F0E0907F97F0C5F0907F96CE
:1009D000F074E6907F98F074E7F0DB9674FFF022F5
:1009E000120913907FE5E0C5F0E0907F97F0C5F025
:1009F000907F96F074E6907F98F074E7F0907FE532
:100A0000E0C5F0E0907F97F0C5F0907F96F074E637
:100A1000907F98F074FFF0227E00904000E0F0DEBE
:100A2000F9221209071208EB7B10120913740090C7
:100A30007F9CF0907F9DF0907F9874E5F0907F9A76
:100A4000E0C5F0907F99E0907FE5F0C5F0F074E7A5
:100A5000907F98F074E5F0907F9AE0C5F0907F99D0
:100A6000E0907FE5F0C5F0F074E7907F98F0DBCA86
:100A700074FFF022120932E8907F96F0E9907F9798
:100A8000F074FB907F98F022C083C0821209071295
:100A900008EB12093274FB907F98F0E8907F96F093
:100AA000E9907F97F074D9907F98F0904000E090A3
:100AB0007FE5F074DF907F98F008B8000109DBDB78
:100AC00074FF907F98F0D082D083E8F0A3E9F0A380
:100AD000A37440F022C083C0821209071209327445
:100AE000EB907F98F0E8907F96F0E9907F97F090F8
:100AF0007FE5E0904000F074EA907F98F074EBF0AE
:100B000008B8000109DBDE74FF907F98F0D082D036
:100B100083E8F0A3E9F0A3A37440F022C083C0826D
:100B200012093274DB907F98F0E8907F96F0E9909C
:100B30007F97F074D9907F98F0904000E0E0C0E09B
:100B400074FF907F98F0D0E0D082D08322C083C021
:100B500082C0E012093274EB907F98F0E8907F96A3
:100B6000F0E9907F97F0D0E0904000F0F074EA90C8
:100B70007F98F074FFF07469904000F0D082D083C9
:100B800022E582FCE583FD120913EC907F96F0EDDF
:100B9000907F97F074E6907F98F074E7F074E69099
:100BA0007F98F074FFF022E582FCE583FD120913C3
:100BB000EC907F96F0ED907F97F074E6907F98F040
:100BC00074FFF0221209137470907F96F0740090F5
:100BD0007F97F074E6907F98F074E7F074E6907F6A
:100BE00098F074E7F074E5F0020BF11209131209A2
:100BF0003D74E5907F98F0907F99E0FCF0907F9AAB
:100C0000E0FD74E7907F98F074E5907F98F0907F16
:100C100099E0FEF0907F9AE0FF74FF907F98F022B9
:100C200012091312093D74E5907F98F0907F99E0C6
:100C3000FCF0907F9AE0FD907F9874FFF0227C702A
:100C40007D00120B87120BEBEE5C54802275820044
:100C5000C082120C3ED082A37004E58270F222C0E2
:100C6000E0C082E583907D80F0A3D0E0F0A3EBF0BC
:100C7000A3EAF0A3E9F0A3E8F0A3EFF0A3EEF0A35A
:100C8000EDF0A3ECF0A374AAF0D0E0221209077CE7
:100C9000E87D00120B877C0F7D00120B8712096D17
:100CA0007CD07D00120B87120C4D900000700390D9
:100CB00000032212090790FF00C083C0827CE87DF8
:100CC00000120B87120C45D082D083700EA3E582F0
:100CD000458370E5120C3E900002227C0F7D0012CD
:100CE0000B8712096D7CD07D00120B87120C4D1200
:100CF0000C5F9000007003900003221209077B1024
:100D00007C407D00120B871209E0120C4D9000020E
:100D100060070808DBEA900000220000A3E5824596
:100D20008370F9227A99905354020BA7120D247AFA
:100D3000CC901357020BA7120D247AFF9094130244
:100D40000BA7120D247AEE90A55A020BA7120D24C0
:100D50007A8090FFFF020BA7120D427C8078067903
:100D600000120B4D7C0078067900120B4D120D4DD0
:100D700022C0E0120D24D0E0F5827583007AAA1219
:100D80000BA722C0E0120D24D0E07ABB75820023AD
:100D900023540CF583120BA7120D37227410020D89
:100DA000A37400C0E0120D42D0E0FC780679001276
:100DB0000B4D120D4D22900090120B817804120CF5
:100DC000207800EC540122908000C083C082120D74
:100DD000B6601A900060120B819000D0120BA7D061
:100DE00082D083A3E582458370E0020E21D082D0B9
:100DF00083020E2190FFF0C083C082120DB6701ADC
:100E0000900060120B81900001120B81D082D08380
:100E1000A3E582458370E0020E21D082D083020ECA
:100E2000219000FF020B817400F8F9FA90009012F3
:100E30000B812278007900900090120B81120C2017
:100E4000907FE5ECF07804120C20907FE5ECF078D0
:100E500002120C20907FE5ECF0EDF07800120E21EC
:100E600022907D802582F5820586907C80E0058633
:100E7000F0A30586907C88E00586F0A30586907C2B
:100E800084E00586F0A30586907C85E00586F0A3C6
:100E900022E4907F93F0907F94F0907F96F0907F83
:100EA00097F0907F9CF0907F9DF074FF907F98F07A
:100EB00074FF907F9EF074C0907F95F0120D37E420
:100EC000F8F9FA9000FF120B819000FF120B8122BB
:100ED000E4907F93F0907F94F0907F96F0907F97CE
:100EE000F0F4907F9CF0907F9DF0747F907F98F05D
:100EF00074FF907F9EF07440907F957414907F985B
:100F0000F0E4904000F0227B0074EF907F98F0EBCB
:100F1000904000F074CF907F98F0904000E06B70AC
:100F200007DBE69000018003900000058674FF90C7
:100F30007F98F0058622120E9122E4E4F9F8120B54
:100F40001CCE08120B1CCF78007469FC120B4D08E4
:100F5000749AFD120B4D7800120B1C9000006C70FF
:100F60001808120B1C9000006D700E7800EE120B2A
:100F70004D08EF120B4D90000122E582C0E0120FE8
:100F800036D0E054FF60027410E4FFF8F9EFEFC0D0
:100F9000E0120D837A00120E21120DF474402AFA29
:100FA00070F7D0E0FF0FBF04E4E4120D837A001263
:100FB0000DC7E4FFF8F9907D801208F8EF120D8359
:100FC0007A00120E21EAC0E0120E33D0E02440FA7B
:100FD00070F30FBF04E622758107120050E58260AE
:100FE0000302004B753707753805753981753A036B
:100FF000753B40753C00753D0A753E07753F0575AC
:1010000040027541027542407543007544007545C4
:1010100007754605754783754802754940754A004E
:10102000754B00754C07754D05754E04754F02756F
:10103000504075510075520075530775540575552C
:101040008575560275574075580075590002004B5A
:10105000AAAAAAAAAAAAAAAAAAAAAAAAAAAAAAAAF0
:10106000AAAAAAAAAAAAAAAAAAAAAAAAAAAAAAAAE0
:10107000AAAAAAAAAAAAAAAAAAAAAAAAAAAAAAAAD0
:10108000AAAAAAAAAAAAAAAAAAAAAAAAAAAAAAAAC0
:00000001FF
