:10000000020EF5021325A907AE1DAF1E8F828E8347
:10001000A3E064037017AD0119ED7001228F828E89
:1000200083E07C002FFDEC3EFEAF0580DF7E007F8D
:1000300000222202003E907FEAE0F512D32253D83C
:10004000EF3232021000C0E0C0F0C083C082C0D0E6
:1000500075D000C000C001C002C003C004C005C00C
:1000600006C00775210075220075270075280075E8
:100070002300752400752500752600907CC0E0F5EE
:100080000E12112500A60101C402026003030F0431
:1000900003230C032B1A03381D034C1E03561F03A6
:1000A000422000000364907FB9E4F0F0907FB8E054
:1000B0004402F0907FBAE04402F0907CC4E0F50C7A
:1000C000907CC3E0F513907CC2E0F515907CC1E014
:1000D000F514907F987401F0E50C44A2FF90FFF0B6
:1000E000F0E50C44E2F0907F987402F090FFF0E5A8
:1000F00013F0907F987403F090FFF0E514F0E5158D
:10010000F0907F987401F090FFF0EFF0907F98E40A
:10011000F0F521F52290FFF0E0FDE522AE21780315
:10012000C333CE33CED8F9FF2401F582747E3EF579
:1001300083EDF090FFF0E0FD74002FF582747E3EB9
:10014000F583EDF090FFF0E0FD74032FF582747EEF
:100150003EF583EDF090FFF0E0FD74022FF5827420
:100160007E3EF583EDF090FFF0E0FD74052FF58203
:10017000747E3EF583EDF090FFF0E0FD74042FF502
:1001800082747E3EF583EDF090FFF0E0FD74072F62
:10019000F582747E3EF583EDF090FFF0E0FD74068D
:1001A0002FF582747E3EF583EDF00522E522700284
:1001B0000521640845216003020115907FB9744050
:1001C000F0020364750E67907CC5E0F518907CC45E
:1001D000E0F50C907CC3E0F513907CC2E0F515903F
:1001E0007CC1E0F514E50E64676003020364907F50
:1001F0009804F0E50C44A2FF90FFF0F0E50C44E217
:10020000FEF0907F987402F090FFF0E513F0907F7D
:10021000987403F090FFF0E514F0E515F0907F98E6
:100220007401F090FFF0EFF0907F98E4F090FFF011
:10023000F07470F0E4F07470F0E5186401600AE4A2
:10024000F07470F0E4F07470F0907F987401F090A6
:10025000FFF0EEF0120F81750800750900020364CB
:10026000907FB9E4F0F0907FB8E04402F0907FBA5C
:10027000E04402F0907CC3E0F50F907CC2E0F51101
:10028000907CC1E0F510752100752200907F987474
:1002900001F090FFF074C2F074E2F0907F98740265
:1002A000F090FFF0E50FF0907F987403F090FFF06E
:1002B000E510F0E511F0907F987401F090FFF07474
:1002C000C2F0907F98E4F090FFF0E0FF74002522E8
:1002D000F582E4347EF583EFF0E510D394FE400B15
:1002E000E511D394FE4002050F051105100522E526
:1002F0002270020521644045217091907F9874011D
:10030000F090FFF074E2F0907FB97440F080559067
:100310007CC3E0F50F907CC2E0F511907CC1E0F564
:10032000108041907FBD7440F08039907D00E4F0F2
:10033000907FBD7440F0802C907CC1E0907F98F05D
:100340008022907CC1E0907F96F08018907CC1E084
:1003500090FFF0F0800E90FFF0E0907D00F0907F35
:10036000BD7440F05391EF907FAA7410F0907FCD50
:10037000E4F0D007D006D005D004D003D002D001DD
:10038000D000D0D0D082D083D0F0D0E032C0E0C056
:10039000F0C083C082C0D075D000C000C001C002D0
:1003A000C003C004C005C006C00775210075220047
:1003B000E50E24FC70030205D7249D600302065657
:1003C000E50945087003020521E518640170030280
:1003D0000487D3E50994BFE508940350030204762B
:1003E000120970907F987401F0E50C44A2FF90FF11
:1003F000F0F0E50C44E2FEF0907F987402F090FF7C
:10040000F0E513F0907F987403F090FFF0E514F09E
:10041000E515F0907F987401F090FFF0EFF0907F79
:1004200098E4F090FFF0F0740EF0E4F0740EF0E455
:10043000F0740EF0E4F0740EF0E4F074D0F0E4F038
:1004400074D0F0E4F074D0F0E4F074D0F0907F98C1
:100450007401F090FFF0EEF0120F81E514C3948068
:100460004002051574802514F514120F81750800DB
:1004700075090002065612097074402509F509E451
:100480003508F508020656D3E50994BFE50894013E
:10049000407E120970907F987401F090FFF074A272
:1004A000F074E2F0907F987402F090FFF0E513F0A2
:1004B000907F987403F090FFF0E514F0E515F0904C
:1004C0007F987401F090FFF074A2F0907F98E4F0B0
:1004D00090FFF0F0740EF0E4F0740EF0E4F074D0DD
:1004E000F0E4F074D0F0907F987401F090FFF07415
:1004F000E2F0120F81E514C3948040020515748068
:100500002514F514120F81750800750900020656AE
:1005100012097074402509F509E43508F50802064A
:1005200056907F987401F0E50C44A2FF90FFF0F024
:10053000E50C44E2F0907F987402F090FFF0E51330
:10054000F0907F987403F090FFF0E514F0E515F05B
:10055000907F987401F090FFF0EFF0907F98E4F0B6
:1005600090FFF0F07441F0E4F07441F0E51864019C
:10057000600AE4F07441F0E4F07441F0907F987404
:1005800001F0E50C44E2FF90FFF0F0907F987401D9
:10059000F0E50C44A2FE90FFF0F0EFF0907F98742D
:1005A00002F090FFF0E513F0907F987403F090FF55
:1005B000F0E514F0E515F0907F987401F090FFF0ED
:1005C000EEF0907F98E4F012097074402509F50967
:1005D000E43508F508807F752100752200907F982A
:1005E0007401F090FFF074C2F074E2F0907F9874A0
:1005F00002F090FFF0E50FF0907F987403F090FF09
:10060000F0E510F0E511F0907F987401F090FFF0A4
:1006100074C2F0907F98E4F074C02522F582E4342F
:100620007DF583E090FFF0F0E510D394FE400BE5FC
:1006300011D394FE4002050F051105100522E52295
:1006400070020521644045217093907F987401F0F9
:1006500090FFF074E2F05391EF907FAA7404F09051
:100660007FC9E4F0D007D006D005D004D003D00273
:10067000D001D000D0D0D082D083D0F0D0E0329062
:100680007FE9E0700302081514700302089124FE4C
:10069000700302090824FB700302080F14700302A0
:1006A00008091470030207FD1470030208032405EF
:1006B000600302095C1213114003020968907FEB8A
:1006C000E024FE6019146046240260030207F3E58B
:1006D00019907FD4F0E51A907FD5F0020968907FD9
:1006E000EAE0FF12114BAA06A9077B018B398A3A6F
:1006F000893BEA494B600DEE907FD4F0EF907FD5B7
:10070000F0020968907FB4E04401F0020968907F2C
:10071000EAE0FF120006AA06A9077B018B398A3A94
:10072000893BEA494B70030207E9AB398B408A41A8
:1007300089421210FBF543907FEEE0FFE543D39F23
:100740004003E0F543E54370030207DBE4F53FF5C2
:100750003EF53DF53CE543C394405004AF43800271
:100760007F40E4FCFDFEAB3FAA3EA93DA83CC3127E
:1007700011145036E542253FF582E541353EF583BB
:10078000E0FF7400253FF582E4347FF583EFF0E469
:10079000FAF9F8E53F2401F53FEA353EF53EE93543
:1007A0003DF53DE8353CF53C80ABE543C394405016
:1007B00004AF4380027F40907FB5EFF0E543C394E0
:1007C000405004AF4380027F40C3E5439FF5439010
:1007D0007FB4E020E20302074580F4E4907FB5F0A7
:1007E000907FB47402F0020968907FB4E04401F095
:1007F000020968907FB4E04401F002096812130115
:10080000020968120FF6020968120036020968121E
:1008100012F30209681213134003020968907FE87B
:10082000E0247F60241460312402705BA200E43372
:10083000FF25E0FFA202E4334F907F00F0E4A3F035
:10084000907FB57402F0020968E4907F00F0A3F095
:10085000907FB57402F0020968907FECE0F4548058
:10086000FFC4540FFFE054072F25E024B4F582E4C1
:10087000347FF583E05401907F00F0E4A3F0907F93
:10088000B57402F0020968907FB4E04401F00209F7
:10089000681213154003020968907FE8E024FE60A7
:1008A0001D24026003020968907FEAE0B40105C2DA
:1008B00000020968907FB4E04401F0020968907F6B
:1008C000EAE0703B907FECE0F45480FFC4540FFFEB
:1008D000E054072F25E024B4F582E4347FF583E467
:1008E000F0907FECE05480FF131313541FFFE0548B
:1008F000072F907FD7F0E4F540E04420F080699026
:100900007FB4E04401F08060121317505B907FE8E1
:10091000E024FE60182402704F907FEAE0B40104E6
:10092000D2008044907FB4E04401F0803B907FEAA5
:10093000E07020907FECE0F45480FFC4540FFFE09F
:1009400054072F25E024B4F582E4347FF583740145
:10095000F08015907FB4E04401F0800C1213195020
:1009600007907FB4E04401F0907FB4E04402F022AD
:10097000907DC1E090FFF0F0907DC0E090FFF0F03E
:10098000907DC3E090FFF0F0907DC2E090FFF0F02A
:10099000907DC5E090FFF0F0907DC4E090FFF0F016
:1009A000907DC7E090FFF0F0907DC6E090FFF0F002
:1009B000907DC9E090FFF0F0907DC8E090FFF0F0EE
:1009C000907DCBE090FFF0F0907DCAE090FFF0F0DA
:1009D000907DCDE090FFF0F0907DCCE090FFF0F0C6
:1009E000907DCFE090FFF0F0907DCEE090FFF0F0B2
:1009F000907DD1E090FFF0F0907DD0E090FFF0F09E
:100A0000907DD3E090FFF0F0907DD2E090FFF0F089
:100A1000907DD5E090FFF0F0907DD4E090FFF0F075
:100A2000907DD7E090FFF0F0907DD6E090FFF0F061
:100A3000907DD9E090FFF0F0907DD8E090FFF0F04D
:100A4000907DDBE090FFF0F0907DDAE090FFF0F039
:100A5000907DDDE090FFF0F0907DDCE090FFF0F025
:100A6000907DDFE090FFF0F0907DDEE090FFF0F011
:100A7000907DE1E090FFF0F0907DE0E090FFF0F0FD
:100A8000907DE3E090FFF0F0907DE2E090FFF0F0E9
:100A9000907DE5E090FFF0F0907DE4E090FFF0F0D5
:100AA000907DE7E090FFF0F0907DE6E090FFF0F0C1
:100AB000907DE9E090FFF0F0907DE8E090FFF0F0AD
:100AC000907DEBE090FFF0F0907DEAE090FFF0F099
:100AD000907DEDE090FFF0F0907DECE090FFF0F085
:100AE000907DEFE090FFF0F0907DEEE090FFF0F071
:100AF000907DF1E090FFF0F0907DF0E090FFF0F05D
:100B0000907DF3E090FFF0F0907DF2E090FFF0F048
:100B1000907DF5E090FFF0F0907DF4E090FFF0F034
:100B2000907DF7E090FFF0F0907DF6E090FFF0F020
:100B3000907DF9E090FFF0F0907DF8E090FFF0F00C
:100B4000907DFBE090FFF0F0907DFAE090FFF0F0F8
:100B5000907DFDE090FFF0F0907DFCE090FFF0F0E4
:100B6000907DFFE090FFF0F0907DFEE090FFF0F0D0
:100B700022C0E0C083C082C0D075D000C000C004D5
:100B8000C005C006C007E4FDFCE50E24FD700302AD
:100B90000C4724026003020CC27C007D00EDAE0411
:100BA0007803C333CE33CED8F9F5178E1690FFF005
:100BB000E0FFAE1774012EF582E4347EF583EFF08A
:100BC00090FFF0E0FF74002EF582E4347EF583EFB1
:100BD000F090FFF0E0FF74032EF582E4347EF5839D
:100BE000EFF090FFF0E0FF74022EF582E4347EF522
:100BF00083EFF090FFF0E0FF74052EF582E4347E81
:100C0000F583EFF090FFF0E0FF74042EF582E434FA
:100C10007EF583EFF090FFF0E0FF74072EF582E49D
:100C2000347EF583EFF090FFF0E0FF74062EF5823E
:100C3000E4347EF583EFF00DBD00010CED64084C4B
:100C40006003020B9D807B7C007D00907F98740187
:100C5000F090FFF074C2F074E2F0907F987402F0AC
:100C600090FFF0E50FF0907F987403F090FFF0E5AF
:100C700010F0E511F0907F987401F090FFF074C0CF
:100C8000F0907F98E4F090FFF0E0FF74002DF58283
:100C9000E4347EF583EFF0E510D394FE400BE511CC
:100CA000D394FE4002050F051105100DBD00010C87
:100CB000ED64404C7095907F987401F090FFF07453
:100CC000E2F05391EF907FA97404F0907FB97440E3
:100CD000F0D007D006D005D004D000D0D0D082D03C
:100CE00083D0E032E4F534F533F532F531C203C296
:100CF00000D202C2011210587E0E7F498E198F1A3F
:100D0000751B0E751C5B751D0E751ECFEE54E070C5
:100D100003020DFA7535007536808E378F38C3742F
:100D2000F39FFF740E9ECF2402CF3400FEE48F3079
:100D30008E2FF52EF52DF52CF52BF52AF529AF3054
:100D4000AE2FAD2EAC2DAB2CAA2BA92AA829C312ED
:100D50001114502AE536252CF582E535352BF5831F
:100D600074CDF0E4FAF9F8E52C2401F52CEA352BE2
:100D7000F52BE9352AF52AE83529F52980C0E4F56F
:100D80002CF52BF52AF529AF30AE2FAD2EAC2DABBF
:100D90002CAA2BA92AA829C31211145037E53825EB
:100DA0002CF582E537352BF583E0FFE536252CF56C
:100DB00082E535352BF583EFF0E4FAF9F8E52C24DC
:100DC00001F52CEA352BF52BE9352AF52AE83529EA
:100DD000F52980B385351985361A74492480FF7446
:100DE0000E34FFFEC3E51C9FF51CE51B9EF51BC3DF
:100DF000E51E9FF51EE51D9EF51DD2E843D8209007
:100E00007F95E044C0F0907FAFE04401F0907FAE6A
:100E1000E0441DF0D2AFD2041210AA538EF8300174
:100E20000512067FC20130031A120FFE5015C203CD
:100E3000121217200007907FD6E020E7F31212521B
:100E400012130F12003280D622120100010000009E
:100E50004094506020010001020001090274000169
:100E600001008064090400000EFF00000007050176
:100E7000024000000705020240000007050302408F
:100E800000000705040240000007050502400000BD
:100E9000070506024000000705070240000007059D
:100EA000810240000007058202400000070583021E
:100EB000400000070584024000000705850240004D
:100EC0000007058602400000070587024000000475
:100ED0000309040A03550053005400430016034558
:100EE00000460041002D004C0049004E004B0045DB
:100EF0000052000000787FE4F6D8FD758145020FAE
:100F00003C020CE4E493A3F8E493A34003F68001CD
:100F1000F208DFF48029E493A3F85407240CC8C333
:100F200033C4540F4420C8834004F456800146F66D
:100F3000DFE4800B01020408102040809011F4E4EB
:100F40007E019360BCA3FF543F30E509541FFEE4CB
:100F500093A360010ECF54C025E060A840B8E4938D
:100F6000A3FAE493A3F8E493A3C8C582C8CAC583CF
:100F7000CAF0A3C8C582C8CAC583CADFE9DEE78054
:100F8000BE907F987401F0E50C44A2FD90FFF0F054
:100F9000E50C44E2F0907F987402F090FFF0E513C6
:100FA000F0907F987403F090FFF0E514F0E515F0F1
:100FB000907F987401F090FFF0EDF0E4907F98F04E
:100FC000E518601290FFF0E0FEE0FEE0FFE0FFBEFB
:100FD00080F2BF80EF2290FFF0E0FEE0FEE0FFE055
:100FE000FFE0FDE0FDE0FCE0FCBE80EABF80E7BD85
:100FF00080E4BC80E122907FEAE0F50AD322D3228C
:1010000002126C000212B20002129C000212840052
:1010100002118D000200420002131B0002131C008B
:1010200002131D0002131E00020B710002038D004B
:1010300002131F00021320000212C8000200460023
:1010400002132100021322000212380002132300AF
:101050000213240002132500907FDD741BF0907FA3
:10106000DEE0447CF0907FDFE0447CF0907FACE0F9
:10107000447CF0907FADE0447CF0E4907F93F0906E
:101080007F94F0907F9574C0F0907F9C7430F0E472
:10109000907F9DF0907F9E743FF0907F967410F04B
:1010A00090FFF0E074FFF0C20022907FD6E0440889
:1010B000F0E4F539E054FBF0E4F539E04408F030B1
:1010C0000404E04402F07FDC7E051211CB907F9295
:1010D000E030E3077FDC7E051211CB907FAB74FF1D
:1010E000F0907FA9F0907FAAF05391EF907FD6E027
:1010F00054F7F0E4F539E04404F022BB010689829C
:101100008A83E0225002E722BBFE02E32289828A20
:1011100083E49322EB9FF5F0EA9E42F0E99D42F0D2
:10112000E89C45F022D083D082F8E49370127401D9
:1011300093700DA3A393F8740193F5828883E473ED
:101140007402936860EFA3A3A380DFE4FEAC1BAD41
:101150001C8D828C83A3E06402702DAB060EEBB570
:101160000705AF05AE04228D828C83A3A3E0F5446E
:10117000A3E0F5456244E5446245E54562442DFB44
:10118000E5443CFCAD0380C97E007F0022C0E0C086
:1011900083C082907FB9E4F0F0907FB8E04402F021
:1011A000907FBAE04402F0907FBDE4F0F0907FBC05
:1011B000E04402F0907FBEE04402F05391EF907F54
:1011C000AB7410F0D082D083D0E0328E3A8F3B9057
:1011D0007F92E030E30BE53B25E0F53BE53A33F564
:1011E0003AE53B153BAE3A7002153A4E60051212D5
:1011F0002780EE22011000011100010F00011400F0
:10120000011500011300010B00011800010C000280
:10121000160000010D0000907FD6E04480F0438767
:10122000010000000000227400F58690FDA57C05F9
:10123000A3E582458370F922C0E0C083C082539148
:10124000EF907FA97440F0907FC1F0D082D083D01E
:10125000E032907FD6E030E712E04401F07F147E68
:10126000001211CB907FD6E054FEF022C0E0C08384
:10127000C082D2015391EF907FAB7401F0D082D045
:1012800083D0E032C0E0C083C082D2035391EF909C
:101290007FAB7408F0D082D083D0E032C0E0C0834E
:1012A000C0825391EF907FAB7404F0D082D083D092
:1012B000E032C0E0C083C0825391EF907FAB7402F4
:1012C000F0D082D083D0E032C0E0C083C08253919E
:1012D000EF907FA97410F0D082D083D0E032E4FF89
:1012E000FE90FFF07455F00FBF00010EEF64404E0A
:1012F00070EF22907F00E512F0907FB57401F0D37B
:1013000022907F00E50AF0907FB57401F0D322D3DC
:1013100022D322D322D322D322D3223232323232E8
:00000001FF
