:100000000211A432AAAAAAAAAAAAAA32AAAAAAAA87
:10001000AAAAAA32AAAAAAAAAAAAAA32AAAAAAAA30
:10002000AAAAAA32AAAAAAAAAAAAAA32AAAAAAAA20
:10003000AAAAAA32AAAAAAAAAAAAAA32AAAAAAAA10
:10004000AAAAAA020948AAAAAAAAAA12082B80FE4A
:1000500075820022907F9E7440F0907F987440F0EB
:10006000907F957440F022907F987480F0907F9EEE
:100070007480F0907F957480F022907F987440F0A7
:10008000907F9E7442F0907F95E4F022758E0090F0
:100090007F95E4F0907F94F0907F9D74FEF0907FC8
:1000A0009774FFF0907FAFE4F012007A907FAE7407
:1000B00001F0907FDE742BF0907FDF7415F0907F5D
:1000C000AC74FFF0907FAD7415F0907FB6E0FA430A
:1000D0000202907FB6EAF0907FBEE0FA43020290FF
:1000E0007FBEEAF075E8E175F80075A880227A0015
:1000F0007B007C007D00C3EC9412ED94005026EA56
:100100002480FEEB347BFFEC245AF582ED340AF5B3
:1001100083E493F88E828F83F00ABA00010B0CBC43
:1001200000D40D80D17C007D00C3EC9409ED9400D7
:100130005026EA2480FEEB347BFFEC246CF582ED44
:10014000340AF583E493F88E828F83F00ABA0001B3
:100150000B0CBC00D40D80D17C007D00C3EC940955
:10016000ED9400E433FE8A5D8B5EEE6027EA248026
:10017000FEEB347BF9EC2475F582ED340AF583E46B
:1001800093F55F8E828983F00ABA00010B0CBC00E4
:10019000CB0D80C87A007B007CF97DFFC3EA940513
:1001A000EB9400400302020274072CFCE43DFDECDA
:1001B000243AFE855D60855E6179007F00C3E99425
:1001C00007EF9400E433F885605D85615EE8602A9E
:1001D000E5602480F582E561347BF583E92EF55FE7
:1001E000C000A85F8662D000E562F00560E4B560FB
:1001F00002056109B900C60F80C30ABA00010B02EB
:10020000019C22AA82AB83ACF0FD8A068B078C008E
:100210008D011ABAFF091BBBFF051CBCFF011DEEB7
:100220004F484970E522907CC4E0FA8A3275330069
:10023000753400753500907CC5E0FA7B007C007D4C
:10024000008C058B048A037A00EA2532F532EB35FF
:1002500033F533EC3534F534ED3535F535907CC672
:10026000E0FA7B007C007D008B058A04E4FBFA2524
:1002700032F532EB3533F533EC3534F534ED3535D5
:10028000F535907CC7E0FA7B007C007D008A05E4B0
:10029000FAFBFCEA2532F532EB3533F533EC353435
:1002A000F534ED3535F53574032532FAE43533FB95
:1002B000E43534FCE43535FDC313F535EC13F53482
:1002C000EB13F533EA13F532C3E53513F535E534B1
:1002D00013F534E53313F533E53213F53222907F0D
:1002E000B6E0FA30E102801F907B50E0FA6018908F
:1002F0007B50E0FA7B00EA60041A0B80F9907B5097
:10030000E0FA907FB7EAF022907FC8E0FA30E1028D
:10031000800D907FC9E0FA6006907FC97440F0229A
:10032000907FBAE0FA30E1030203BD907FBBE0FAB0
:1003300070030203BDE536B4010280030203BDE58C
:1003400039601112006775828075837D75F0011226
:1003500010D8803312007A7A807B7D7C017D108DED
:10036000061DEE60228A828B838CF0C002C003C01F
:1003700004C005121168D005D004D003D002740463
:100380002AFAE43BFB80D8E53224F0F532E5333439
:10039000FFF533E53434FFF534E53534FFF535E565
:1003A00032700CE5337008E5347004E53560028086
:1003B0000612007A753600907FBB7440F022907F61
:1003C000CCE0FA30E1030207CB907FCDE0FABA002F
:1003D000030207CBBA3F028003020797907CC0E07C
:1003E000FABA0002801BBA05030204B3BA0603027C
:1003F0000766BA07030206D8BAFF0302078A020794
:100400008F12007A1200541202267A3F8A031AEBE6
:10041000600EEA2480F582E4347DF583E4F080EC1C
:10042000907D8374A4F0907D82746EF0907D8174D1
:100430005BF0907D807491F0907D907406F0907DDB
:10044000A07408F0907D957420F0907DA57420F044
:10045000907D977403F0907DA77403F0AA33AB34BA
:10046000AC357D00907D98EAF0AA34AB357C007DF8
:1004700000907D99EAF0AA357B007C007D00907D9C
:100480009AEAF07A108A031AEB601C7B807C7D8CE0
:10049000037C00907FE3EBF0907FE47480F0C00277
:1004A000120FCBD00280DE753801907FCD7440F002
:1004B0000207CB753900907D89E4F012007AE537A8
:1004C00070030206A5E53870030206A5907D8C74C2
:1004D00001F07A208A031A8A04EB6010C002C0047B
:1004E000121051AB82D004D002EB60E8C374209CA0
:1004F000FA907D89EAF0EC70030206A7907D8C7477
:1005000002F0907D4074A4F0907D41746EF0907D77
:1005100042745BF0907D437491F07A407B7D8B0256
:100520007B00907FE3EAF0907FE47440F075828076
:1005300075837D75F001121071AA828A39907D8BC6
:10054000E539F0E53970030206A7E539B4400575D1
:1005500039018003753900907D8C7403F0907D40E3
:10056000E4F0907D41E4F0907D42E4F0907D43E43E
:10057000F07A407B7D8B027B00907FE3EAF0907FF6
:10058000E47440F075828475837D75F001121071FA
:10059000AA82EA70030206A7907D8C7404F07A04A4
:1005A000907D84E0FBBBA4027A03907D85E0FBBBD9
:1005B0006E011A907D86E0FBBB5B011A907D87E09F
:1005C000FBBB91011AEA60030206A7907D8C7405BB
:1005D000F07B407C7D8C037C00907FE3EBF0907F90
:1005E000E47440F075828075837D75F001C002125D
:1005F0001071AB82D002EB70030206A77B407C7DBA
:100600008C037C00907FE3EBF0907FE47440F07506
:10061000828075837D75F001C002121071AB82D0AB
:1006200002EB70030206A7907D8C7406F0907D4368
:100630007404F07B407C7D8C037C00907FE3EBF0C6
:10064000907FE47440F075828075837D75F001C001
:1006500002121071AB82D002EB604C907D43E4F04B
:10066000907D8C7407F07B00BB0300502F7C407D95
:100670007D8D047D00907FE3ECF0907FE47440F08A
:1006800075828075837D75F001C002C00312107100
:10069000AC82D003D002EC600E0B80CC907D8CE459
:1006A000F07B0180027B00907D88EAF0907D8AE5F6
:1006B00039F0907D80E537F0907D81EBF0907D8280
:1006C000745AF0907D837469F0907FCD7440F090FF
:1006D0007FBB7440F00207CB1200541202267AD07E
:1006E0007B7C8B027B00907FE3EAF0907FE474D008
:1006F000F0120FE3753601E539601112006775825B
:100700008075837D75F0011210D8803312007A7ADB
:10071000807B7D7C017D108D061DEE60228A828BA0
:10072000838CF0C002C003C004C005121168D0055C
:10073000D004D003D00274042AFAE43BFB80D8E54D
:100740003224F0F532E53334FFF533E53434FFF588
:1007500034E53534FFF535907FCD7440F0907FBBA4
:100760007440F00207CB1200541202267AD07B7C30
:100770008B027B00907FE3EAF0907FE474D0F0126C
:100780000FE3907FCD7440F08041753000803C9045
:100790007FCD7440F080347AC07B7C8B027B0090EC
:1007A0007FE3EAF0907FE474C0F0120FCBE53224CF
:1007B000F0F532E53334FFF533E53434FFF534E555
:1007C0003534FFF535907FCD7440F022907FBEE048
:1007D000FA30E102800D907FBFE0FA6006907FBFA3
:1007E0007440F022907FD6E0FA5302F3907FD674E3
:1007F0000C4AF022907FD6E0FA5302F3907FD67431
:10080000064AF022120FFC80FB22907F95E4F090C4
:100810007F98F0907F9E74FBF075380022907F9552
:10082000E4F0907F98F0907F9EF022907F9BE0FA1A
:1008300074045AF537700312080A75380075A80059
:100840001207E412008C1200EE1207F47539001240
:1008500000547A00BA4000500FEA2480F582E43454
:100860007CF583EAF00A80EC75A880753001753656
:1008700000907F9BE0FA530204E537B50202801630
:10088000E537600512080A800312081D907F9BE07F
:10089000FA74045AF537E530600280D512007A9078
:1008A0007D84E4F0907D85E4F07A807B7D8B027B13
:1008B00000907FE3EAF0907FE47480F0120B35AA99
:1008C00082BA00028003020871907D847489F090DE
:1008D0007D8574ABF0120054753001907FCD74406B
:1008E000F0907FBB7440F002087122AA82BA010224
:1008F000800ABA0202801BBA0334802A7A807B7B8A
:100900008B047D00907FD4ECF08A04907FD5ECF0CE
:1009100080227A927B7B8B047D00907FD4ECF090D8
:100920007FD5EAF0800E907B4A7401F08006907BC0
:100930004A7401F022907FE9E0FABA060A907FEB50
:10094000E0FA8A821208EB22C0E0C0F0C082C083C5
:10095000C002C003C004C005C006C007C000C0017B
:10096000C0D075D000907FA8E0FABA3C0F1203BE49
:100970005391EF907FAA7410F0020A3F907FA8E095
:10098000FABA0002801BBA20030209F8BA2C03024B
:100990000A06BA3003020A14BA4003020A22020A03
:1009A00030907B4AE4F0907FE8E0FA530260BA00AE
:1009B00012120935907B507401F01202DE907FC94B
:1009C0007440F0907B4AE0FABA000F907FB4E0FAEE
:1009D000430202907FB4EAF0800D907FB4E0FA43C6
:1009E0000203907FB4EAF05391EF907FABE0FA906E
:1009F0007FAB74014AF080471202DE5391EF907F83
:100A0000A97402F080391203085391EF907FAA7401
:100A100004F0802B1203205391EF907FA97408F00B
:100A2000801D1207CC5391EF907FA97420F0800FA6
:100A30005391EF907FABE0FA907FAB74014AF0D016
:100A4000D0D001D000D007D006D005D004D003D03C
:100A500002D083D082D0F0D0E03212010001000039
:100A600000404705021001000000000109023500A6
:100A700001010080FA0904000005FF00FF00907FDB
:100A8000987450F0907F9E7400F075820022907FE1
:100A9000977482F07480F022E8FCE9FD7F12740202
:100AA000907F98F0EDD313FDEC13FC4004740280AA
:100AB00004741280007E09DEFEDFE5907F9E7442A2
:100AC000F0907F987400F07EFA907F9BE030E40411
:100AD000DEFA8037E4FCFD7F107E13DEFE907F9B04
:100AE000E0A2E4ED13FDEC13FC007E0BDEFEDFED77
:100AF0007E09DEFE907F987450F07E32DEFE907F9D
:100B00009E7452F07E00DEFE7F00227FFF22120ADA
:100B100098BF0008EC9A70F6ED9B70F222E0F8A303
:100B2000E0F9A30586120A9805861ABA00EFBB0001
:100B300001221B80E8907F9E7452F0780079627ADF
:100B4000027B72120B0EBF000778027961120A98BD
:100B5000BF000A900BE37A607B00120B1DBF007987
:100B600078C179637AA07B73120B0EBF006B78AFEC
:100B70007964120A98BF0061ECC0E0907FE5F090C4
:100B80000FC9E0F8A3E0F9120A98ECC0E0907FE505
:100B9000F0900FC7E0FAA3E0FB900CA3120B1DD05E
:100BA000E0F8D0E0BF0032C0E0E8C0E0786579004E
:100BB0007A757B00120B0E78667900120A98D0E0E5
:100BC000F8D0E0B4A008B8A005900FC38003900F40
:100BD000C5E0F8A3E0F9120A98907FE5ECF0EDF09B
:100BE0008F82222E0000EA24FFAE51699AA2213D95
:100BF00084820A84E409AD11248B98C0817F21A3EB
:100C000052BE199309CE2010464A4AF82731EC58B3
:100C1000C7E83382E3CEBF85F4DF94CE4B09C1949D
:100C2000568AC01372A7FC9F844D73A3CA9A615859
:100C300097A327FC039876231DC7610304AE56BF14
:100C400038840040A70EFDFF52FE036F9530F197E8
:100C5000FBC08560D68025A963BE03014E38E2F94A
:100C6000A234FFBB3E0344780090CB88113A9465D0
:100C7000C07C6387F03CAFD625E48B380AAC722188
:100C8000D4F807474241205061636B20322E304731
:100C900042415000009600000000000000000000EB
:100CA0001E000098C03F278EAE5CB81FF804A50256
:100CB0009AE821A32C186AC089256B458D82ED3AEC
:100CC000244999230F505CD6A3FA7E07C5D2EDDAEA
:100CD0000836967251C25305E4C37E048820044E40
:100CE0002FB4A0BF34EA255525774E6F665B4122AD
:100CF00080B30F82C4DD6012E82E6C8B84C7DF09DD
:100D0000B435E86B1655FA0E9442F74F1188A8A235
:100D1000C2ECB7930E87F666E147FCC7581BA72ABB
:100D200045DC595BD172F6D4F85B945F470F79CC00
:100D30002699B4F36990937A80ED76D74FCBFBFA7E
:100D4000DCF9038F9786BB3E46AC82EFCBFD9C025D
:100D5000CFD823B2EC48BE382AF63046237F420A69
:100D6000187431E5F51E60EE0623CEBFCC1F466039
:100D7000AC8C0AE3274C398E028DBEEFC98D9542AB
:100D80006C4186F31CCF101EE6981A07B62691E830
:100D90003E3ED6530AB3A187378411E992D2B9698E
:100DA00025C34E180787CA0F4579B3BEAC866D7848
:100DB00093D2F62DEAF1E1F619B12E166DCCF8B406
:100DC000B64D897B8F9020FFF1E52A2ECAB6E0B69A
:100DD000E0425E37FCFA87C487BC203FA7043E721E
:100DE00019AAEA8348569FAEC011DA83868FB81AD3
:100DF000CB877F23BE211994BC9023F667343EDB5A
:100E00008162421FCB5F052E4EF398CFB992965365
:100E1000104FB61DC5DF0F96B4CB30E59BCFD2ABDC
:100E2000BE67F0DAF68E378B77C034A70B147740A5
:100E3000F96A6A43EC92820EB780A1EFCAD87BC2EE
:100E40004861B3CB14DD3842C062F86EAC38D9B318
:100E50003686AC8BE53780B257D3E5B77FC5E57AE8
:100E600059C9887A6A67C46FE3F7C23F0205CBEAC3
:100E7000F3281FC25917A462C6E5E50F3729CC1B1A
:100E8000391391177CF75ADD85253C8A709DCD92E8
:100E9000295BA8D11ADB3C25432679674CEC23EC6F
:100EA00076769E6B85A71D8F93B66F1D370A460217
:100EB000F571DB3350F05978C43B6F97962EBC1414
:100EC0009B5800A5982BD6FA527A86AE0EF4DA8299
:100ED000F7BCA2C78239A1F3E4E97206E51F37EA3D
:100EE00016F5A054361353BE1BC64AFACD89A0236B
:100EF000EDDBF72CC8C3EE152DE9DD7FE264415A26
:100F000011B1FF6DC5B7A2DCA9A9514E9C5301FBDD
:100F10008839C3FDB534CE3D9A0F47B6C3B79F2D70
:100F2000427334AB2B0C1B4E2DC3A75F7EDBB0C2CC
:100F3000AFE0170FFA129D30D5FE5ADB366E5BFD1F
:100F4000191CC6C6C6E2B836577303E1A2129F3B0E
:100F500008B703B2CF9150C1AB3725CBF536AD0BF7
:100F600005FF8AF449B42DFE178C365158B315BFCE
:100F7000879E2D400BF740D8195599C02EB18F99F7
:100F800048F2CA8B811B67EAF1B8490BAF507675FE
:100F9000819EDFA2F69F4BA297A96AE5AD63256803
:100FA0003A395218411C8477856F079EFCBCE4DFF8
:100FB00006C9B227E9C9A25E21C4D217B496CFBA36
:100FC000EFA9ED59450ACF90019400120FFC120FC2
:100FD000FC120FFC120FFC120FFC120FFC120FFC84
:100FE000120FFC120FFC120FFC120FFC120FFC125E
:100FF0000FFC120FFC120FFC120FFC22907F9BE0E3
:10100000A2E040FB907FE5E0FAE0F9E0F8E09040F4
:1010100000F033F033F033F033F033F033F033F0EB
:10102000E8F033F033F033F033F033F033F033F0F3
:10103000E9F033F033F033F033F033F033F033F0E2
:10104000EAF033F033F033F033F033F033F033F0D1
:10105000227B017A21907F9BE030E011907F987491
:1010600002F07442F0DAEEDBEC7582002275820148
:101070002205867A32907F9BE030E008DAF7058619
:10108000758200227B007C04C8C9FA907FE5E0FDF0
:101090007401FEED33FD92E1C2E6FF907F98F0907F
:1010A0007F9BE0A2E020E7010BEFD2E6907F98F073
:1010B000907F9BE030E7010BEE3350D6DCCAFC0595
:1010C00086EAF0A3E9F0A3E8F0A3ECF0EBF58222C6
:1010D000907F9BE020E0FC2205861210D09040001B
:1010E000058612111D12111D12111D12111D121152
:1010F0001D12111D12111D12111D12111D12111D93
:1011000012111D12111D12111D12111D12111D128D
:10111000111D2205861210D09040000586058675A7
:101120008E027C04C8C9FAE0A2E033FEE0A2E0EE41
:1011300033FEE0A2E0EE33FEE0A2E0EE33FEE0A2FA
:10114000E0EE33FEE0A2E0EE33FEE0A2E0EE33FE9E
:10115000E0A2E0EE33DCCD758E000586F0A3E8F06A
:10116000A3E9F0A3EAF0A322C083C082907F9BE0B2
:1011700020E0FC0586907F987C04C8C9FA7401FEC3
:101180007400F00586E0A2E005867440F0EE33506E
:10119000EEDCE70586D082D083F0A3E8F0A3E9F087
:1011A000A3EAF022758107120050E5826003020075
:1011B0004B753A07753B05753C81753D03753E409F
:1011C000753F0075400A7541077542057543027504
:1011D00044027545407546007547007548077549D6
:1011E00005754A83754B02754C40754D00754E0070
:1011F000754F07755005755104755202755340754A
:1012000054007555007556077557057558857559FD
:1012100002755A40755B00755C0002004BAAAAAAD1
:10122000AAAAAAAAAAAAAAAAAAAAAAAAAAAAAAAA1E
:10123000AAAAAAAAAAAAAAAAAAAAAAAAAAAAAAAA0E
:10124000AAAAAAAAAAAAAAAAAAAAAAAAAAAAAAAAFE
:10125000AAAAAAAAAAAAAAAAAAAAAAAAAAAAAAAAEE
:00000001FF
